:100000000C9434000C9451000C9451000C94510049
:100010000C9451000C9451000C9451000C9451001C
:100020000C9451000C9451000C9451000C9451000C
:100030000C9451000C9451000C9451000C945100FC
:100040000C9451000C9451000C9451000C945100EC
:100050000C9451000C9451000C9451000C945100DC
:100060000C9451000C94510011241FBECFEFD8E026
:10007000DEBFCDBF11E0A0E0B1E0EAECF3E002C0EA
:1000800005900D92AE31B107D9F721E0AEE1B1E0B4
:1000900001C01D92A432B207E1F70E9460010C94E6
:1000A000E3010C9400008AB182608AB98BB18D7F24
:1000B0008BB92FEF89EF90E0215080409040E1F71D
:1000C00000C000008BB182608BB9089520E030E061
:1000D00028303105D4F4499BFECF80EA8A95F1F7A8
:1000E000499B09C08091230190E0880F991F81608E
:1000F0008093230105C080912301880F8093230101
:100100004999FECF2F5F3F4FE3CF809123010895A0
:100110009BB19F70282F207F922B9BB99BB19B7F17
:100120009BB99BB198609BB935E03A95F1F7000017
:100130009BB1977F9BB9EFE1F3E03197F1F700C0F6
:1001400000002BB1F0E18F9FC0011124922F9F700E
:10015000892B8BB98BB188608BB935E03A95F1F773
:1001600000008BB1877F8BB98FE39FE10197F1F797
:1001700000C0000008959BB19F70282F207F922B14
:100180009BB99BB194609BB99BB198609BB935E0DA
:100190003A95F1F700009BB1977F9BB9EFE1F3E04F
:1001A0003197F1F700C000002BB1F0E18F9FC00143
:1001B0001124922F9F70892B8BB98BB188608BB9DA
:1001C00035E03A95F1F700008BB1877F8BB98FE36B
:1001D0009FE10197F1F700C0000008958FEF8AB901
:1001E0002FEF89EF90E0215080409040E1F700C070
:1001F000000082E00E94880088E20E9488008CE073
:100200000E94880086E00E94880081E00E948800A9
:100210008FE39FE10197F1F700C0000008950F936D
:100220001F93CF93DF938C01C0E0D0E0F801EC0F77
:10023000FD1F8081882321F00E94BB002196F6CF0C
:10024000DF91CF911F910F910895811108C0603106
:1002500030F4862F8F7080680E9488000895813066
:1002600039F4603128F4862F8F70806C0E948800EA
:10027000089581E00E9488008FE39FE10197F1F7E4
:1002800000C0000080E80E94880008958AB18D7F38
:100290008AB9809100010E94BB004999FECF8091EC
:1002A00001010E94BB00499BFECF809102010E9488
:1002B000BB004999FECF809103010E94BB000895C5
:1002C000CF93DF93CDB7DEB762970FB6F894DEBF5A
:1002D0000FBECDBF0E94EE0087E0EBE0F1E0DE0153
:1002E000119601900D928A95E1F78BE0E2E1F1E041
:1002F000DE01189601900D928A95E1F700E010E07A
:10030000E1E0F0E0EC0FFD1FE00FF11F808188239A
:1003100029F00E94BB000F5F1F4FF2CF60E081E029
:100320000E94250100E010E0E8E0F0E0EC0FFD1F86
:10033000E00FF11F8081882329F00E94BB000F5F2E
:100340001F4FF2CF85E60E94BB000E9453000E941F
:10035000460186E60E94BB000E946600809322014F
:100360000E946600809321010E9466008093200114
:100370000E94660080931F010E94660080931E0108
:10038000909122012091210130E0290F311D90919F
:100390002001290F311D90911F01290F311D90E07F
:1003A0002817390731F00E94390185E091E00E9459
:1003B0000F012FEF87EA91E6215080409040E1F74E
:0A03C00000C00000BFCFF894FFCF8B
:1003CA004B4C4D4E004572726F720054656D703A17
:0E03DA00200048756D69646974793A2000004E
:00000001FF
